:100000000C948D000C942A1B0C94531B0C947C1B99
:100010000C94D21A0C94A51A0C94A51B0C94922043
:100020000C9492200C9492200C9462190C94271931
:100030000C9492200C9492200C9492200C94922078
:100040000C9492200C9492200C9492200C94922068
:100050000C9492205108570857085708570857081A
:100060005708570857085708570857085708570898
:100070005708570857085708570857085708570888
:1000800057085708570857085708570857082708A8
:100090009807BB07570839085708570857085708E3
:1000A0005708570857085708570857085708570858
:1000B00046085708E807570857080608570857081A
:1000C000570857085708570857085708570815087A
:1000D0009807A207570839085708570857085708BC
:1000E0005708570857085708570857085708570818
:1000F00046085708D90757085708F70700600068EF
:100100008000680078004132007800898000890012
:100110008C004142008C00A6800011241FBECFE558
:10012000D8E0DEBFCDBFECEFF0E041E017C0B59105
:10013000A59135912591059107FD0CC0959185916B
:10014000EF01F92FE82F05900D92A217B307D9F709
:10015000FE0104C01D92A217B307E1F7E931F407CD
:0E01600031F70E94861E0C94E61FF894FFCF24
:10016E00000000000000002F000000070007001430
:10017E007F147F14242A7F2A1223130864623649BF
:10018E005522500005030000001C224100004122B0
:10019E001C0014083E081408083E08080000A06061
:1001AE00000808080808006060000020100804021B
:1001BE003E5149453E00427F400042615149462131
:1001CE0041454B311814127F1027454545393C4A9D
:1001DE0049493001710905033649494936064949ED
:1001EE00291E003636000000563600000814224143
:1001FE0000141414141400412214080201510906AB
:10020E00324959513E7C1211127C7F494949363E82
:10021E00414141227F4141221C7F494949417F0989
:10022E000909013E4149497A7F0808087F00417F4C
:10023E0041002040413F017F081422417F40404051
:10024E00407F020C027F7F0408107F3E4141413EF9
:10025E007F090909063E4151215E7F09192946464B
:10026E004949493101017F01013F4040403F1F2074
:10027E0040201F3F4038403F631408146307087046
:10028E0008076151494543007F41410055AA55AACF
:10029E00550041417F0004020102044040404040AD
:1002AE00000305000020545454787F4844443838E5
:1002BE0044444420384444487F3854545418087EEB
:1002CE0009010218A4A4A47C7F0804047800447DCC
:1002DE0040004080847D007F1028440000417F4014
:1002EE00007C041804787C080404783844444438AC
:1002FE00FC2424241818242418FC7C080404084820
:10030E0054545420043F4440203C4040207C1C2048
:10031E0040201C3C4030403C44281028441CA0A0E7
:10032E00A07C4464544C4400107C82000000FF000A
:0B033E000000827C1000000609090688
:100349002D007C005445414D2032204156454C41F9
:100359004253007468652063617264206973206484
:100369006574656374656420737563636573736627
:10037900756C6C7920210054656D706572617475B6
:1003890072653D256400796F75206172652061751C
:1003990074686F72697A656420746F20656E74651C
:1003A9007220212020202000796F7520617265203C
:1003B9006E6F7420616C6C6F7765642020746F2098
:1003C900656E746572202100636F756E74203D251A
:0203D9006400BE
:1003DB0068076C094C836A9074A07AC000806888A7
:0603EB0000846C82008119
:0703F100286E756C6C2900F9
:0603F800286E696C29006B
:1003FE00A3EAB0E0E5E0F2E00C947A1D4C0159015D
:10040E00C756DF4F488359836A83C959D040212C80
:10041E00312C6E012BE8C20ED11C85E2782E2601FE
:10042E0030E8632ECE018D569F4FC456DF4F998311
:10043E008883CC59D0409C0140E8CF55DF4F2883AC
:10044E0039834A83C15AD040C756DF4F4881C959B4
:10045E00D040C656DF4F5881CA59D040C556DF4FDF
:10046E006881CB59D040FA01849167FD8081882341
:10047E0009F4C9C3CF57DF4F19821882C158D04033
:10048E008FEF9FEFCD57DF4F99838883C358D040AE
:10049E00CB57DF4F19821882C558D040A1E0B0E08B
:1004AE00AC0FBD1FC957DF4FB983A883C758D040C3
:1004BE00E0E8F0E0C757DF4FF983E883C958D04032
:1004CE00CA01A62FE12CF12CFC012491A7FD20815D
:1004DE0021111BC0E114F10401F19701C4010E9426
:1004EE00421AC756DF4F88819981AA81C959D040D7
:1004FE008E0D9F1DA11DF7FCAA95C756DF4F888351
:10050E009983AA83C959D04008C00196A11D2532EE
:10051E0009F3FFEFEF1AFF0AD7CFC756DF4F8881D7
:10052E009981AA81C959D040FC012491A7FD20814F
:10053E00253209F056C39C014A2F2F5F3F4F4F4F74
:10054E00C256DF4F288339834A83CE59D040C756CF
:10055E00DF4F288339834A83C959D040C756DF4FAE
:10056E0088819981AA81C959D040FC012491A7FDA7
:10057E0020812B3241F4CF57DF4F28813981C1586A
:10058E00D04024600BC02C32CCF02D3259F5CF5711
:10059E00DF4F28813981C158D0402160CF57DF4FBE
:1005AE0039832883C158D0400196A11DC756DF4F0D
:1005BE0088839983AA83C959D040D0CF203241F481
:1005CE00CF57DF4F28813981C158D0402860E6CF00
:1005DE00233291F4CF57DF4F28813981C158D04053
:1005EE002061DCCF203341F4CF57DF4F2881398192
:1005FE00C158D0402260D2CF2A3299F50196A11D62
:10060E00C756DF4F88839983AA83C959D040D50135
:10061E00ED91FC911197CF0102968D939C93808161
:10062E009181CB57DF4F99838883C558D04097FF70
:10063E003EC0CF57DF4F28813981C158D040B1E03D
:10064E002B27CF57DF4F39832883C158D040919540
:10065E0081959109CB57DF4F99838883C558D04038
:10066E0026C0BC018A2F0E94A316CB57DF4F998359
:10067E008883C558D040C756DF4F288139814A81BB
:10068E00C959D040F901849147FD8081082E000C94
:10069E00990BC0970A9758F42F5F3F4F4F4FC7568D
:1006AE00DF4F288339834A83C959D040E4CFCF57CF
:1006BE00DF4F88819981C158D04080FF07C08D7F60
:1006CE00CF57DF4F99838883C158D040C756DF4F2D
:1006DE0088819981AA81C959D040FC012491A7FD36
:1006EE0020812E3209F058C0CD57DF4F1982188263
:1006FE00C358D0409C014A2F2F5F3F4F4F4FC756D4
:10070E00DF4F288339834A83C959D040F901549168
:10071E0047FD50815A32D1F40296A11DC756DF4FC4
:10072E0088839983AA83C959D040D501ED91FC9154
:10073E001197CF0102968D939C9380819181CD5715
:10074E00DF4F99838883C358D04026C0842FB901C8
:10075E000E94A316CD57DF4F99838883C358D0408C
:10076E00C756DF4F288139814A81C959D040F901D6
:10077E00849147FD8081082E000C990BC0970A9733
:10078E0058F42F5F3F4F4F4FC756DF4F28833983A3
:10079E004A83C959D040E4CFCE0187569F4F0E945D
:1007AE00C315182FC756DF4F2881C959D040C656DA
:1007BE00DF4F8881CA59D040C556DF4F9881CB593B
:1007CE00D040E22FF82F849197FD8081082E000CE7
:1007DE00990B0E942A208936910509F45AC0B4F467
:1007EE008336910509F466C144F48532910509F406
:1007FE00A1C18136910529F1B3C18436910509F461
:10080E0048C0883691050CF42DC1AAC180379105D8
:10081E0009F4CBC04CF48E36910509F419C18F360C
:10082E00910509F47CC09CC18537910509F454C02B
:10083E008837910509F496C08337910509F090C168
:10084E0058C1612F70E0A501C6010E943C1D892B85
:10085E0009F4B7C1C756DF4F88819981AA81C9595A
:10086E00D0409C014A2F2F5F3F4F4F4FC756DF4F4F
:10087E00288339834A83C959D040FC012491A7FDAE
:10088E002081A601BE016F577F4FC4010E948F20A9
:10089E0095C1612F70E0950141E050E0C6010E94C4
:1008AE009E0B892B09F48DC1C756DF4F8881998124
:1008BE00AA81C959D0400196A11DC756DF4F888322
:1008CE009983AA83C959D040A601BE016F577F4FA5
:1008DE00C4010E94220A72C1612F70E0950140E0AE
:1008EE0050E0C6010E949E0B892B09F46AC1C756BF
:1008FE00DF4F88819981AA81C959D0400196A11DE7
:10090E00C756DF4F88839983AA83C959D040A60161
:10091E00BE016F577F4FC4010E94D0134FC1612F8C
:10092E0070E0950140E050E0C6010E949E0B892BBD
:10093E0009F447C1C756DF4F88819981AA81C959E9
:10094E00D0400196A11DC756DF4F88839983AA8395
:10095E00C959D040A601BE016F577F4FC4010E94F6
:10096E004D102CC1612F70E0950140E050E0C601A2
:10097E000E949E0B892B09F424C1C756DF4F888134
:10098E009981AA81C959D0409C014A2F2F5F3F4FB0
:10099E004F4FC756DF4F288339834A83C959D040FA
:1009AE00FC012491A7FD20814BC0950140E050E051
:1009BE0060EF70E0C6010E949E0B892B09F401C105
:1009CE00C756DF4F88819981AA81C959D0400196B7
:1009DE00A11DC756DF4F88839983AA83C959D0407A
:1009EE0086E028EF33E040E0F901DE01AD56BF4F5F
:1009FE00742F0E949D1FD6012C9111963C91119738
:100A0E0012964C91129713965C91139714966C91C3
:100A1E00149715967C91159716968C911697179696
:100A2E009C91A0E00E94DA1F51F400E010E0CF5537
:100A3E00DF4F288139814A81C15AD040B9C028E799
:100A4E00A601BE016F577F4FC4010E941006B6C0AB
:100A5E00612F70E09501A1014E0D5F1DC6010E9430
:100A6E00770FAFC0612F70E0A501C6010E943C1D3B
:100A7E00892B09F4A6C0C756DF4F88819981AA81B8
:100A8E00C959D0409C014A2F2F5F3F4F4F4FC75639
:100A9E00DF4F288339834A83C959D040FC01249102
:100AAE00A7FD2081A601BE016F577F4FC4010E9492
:100ABE008F2084C0103809F084C0C756DF4F88815C
:100ACE009981AA81C959D0400196A11DC756DF4F01
:100ADE0088839983AA83C959D040D501ED91FC91A1
:100AEE001197CF0102968D939C938081F60180839E
:100AFE005BC0103809F065C0C756DF4F88819981F9
:100B0E00AA81C959D0400196A11DC756DF4F8883CF
:100B1E009983AA83C959D040D501ED91FC911197C3
:100B2E00CF0103968D939C9320813181428100E009
:100B3E0010E03EC0103809F044C0C756DF4F888120
:100B4E009981AA81C959D0400196A11DC756DF4F80
:100B5E0088839983AA83C959D040F601708224C034
:100B6E00D6017C92C256DF4F288139814A81CE59F7
:100B7E00D040C756DF4F288339834A83C959D040A6
:100B8E00CF57DF4F19821882C158D040CB57DF4F55
:100B9E0019821882C558D0408FEF9FEFCD57DF4F87
:100BAE0099838883C358D04001E010E0462D92010E
:100BBE00BE016F577F4FC4010E9457128E0D9F1DAD
:100BCE0011C0C756DF4F88819981AA81C959D0407B
:100BDE000196A11DC756DF4F88839983AA83C959F1
:100BEE00D040C7017101E80EF91EE214F3044CF473
:100BFE008FE490E090936700809366008FEF9FEFF5
:100C0E0003C0170121CCC101CD55DF4FE2E10C9499
:020C1E00961D21
:100C2000A4E1B0E0E6E1F6E00C947A1D98878F83AA
:100C30007A8369835C8B4B8B122FDB011296ED91CB
:100C4000FC91139714962D913C9115973E832D831B
:100C5000ED90FC90119716962D903C901797F7FD0C
:100C600003C0E894E1F802C0E1E0F0E0C701807160
:100C700099279A878987E4FE1FC0AB89BC892C918C
:100C800011963C91119712964C91129713965C9184
:100C9000139714966C91149715967C911597169648
:100CA0008C91169717969C91A0E00E94DA1F21F074
:100CB0008D819E81029702C08D819E81970128704F
:100CC00033273C872B87E3FC0197AB89BC894C9089
:100CD00011965C90119712966C90129713967C90D7
:100CE000139714968C90149715969C9015971696BA
:100CF000AC9016971796BC90A981BA811896CD90A2
:100D0000DC901997B1E0CB1AD108D101AC0DBD1D13
:100D10001C929C838B839F01281B390B3E872D8758
:100D2000C70182709927988B8F87812F012E000C25
:100D3000990BDC01A154B109BA8BA98B32E0C3161F
:100D4000D10434F489859A85892B09F04CC073C08D
:100D50009201A301B401C501A0E00E94DA1F81F154
:100D6000B1E0CB1AD108C2018F7099278A30910562
:100D700014F4C09602C0895A9F4FE989FA897A977C
:100D800048F49C012062215631092A31310510F4C2
:100D90000E942120F101EC0DFD1D80832B813C81FF
:100DA000215031093C832B839201A301B401C50179
:100DB00004E00E945E1D29013A014B015C01BECF97
:100DC0008D859E85AB81BC818A0F9B1F18161906E5
:100DD0003CF21A161B060CF0B5CFEF85F889EF2B05
:100DE00009F0BECFAFCFAB89BC892C9111963C9155
:100DF000119712964C91129713965C911397149633
:100E00006C91149715967C91159716968C91169760
:100E100017969C91A0E00E94DA1F69F0F101EC0D99
:100E2000FD1D31971083B2E0CB1AD108F101EC0D12
:100E3000FD1D80E38083EB85FC85EF2B41F0F1E025
:100E4000CF1AD108F101EC0DFD1D80E28083A9814C
:100E5000BA8118962D913C911997215031092C197E
:100E60003D09C20CD31CA60160E80D811E818F8153
:100E700098850E94A00D9C01EF81F8858081918169
:100E800090FF09C0A981BA8112968D919C91139708
:100E9000821793070CF4C9016496E2E10C94961D45
:100EA0004F925F926F927F92AF92BF92CF92DF92FA
:100EB000EF921F93CF93DF93CDB7DEB7FE013F963E
:100EC000C190D190E1903F01F6C0853209F0EDC0AC
:100ED0008FEFC81AD80AE80AF6018491E7FC8081EE
:100EE00090ED980F9A30A0F01FEF17C0E12FEE0F92
:100EF0009E2F990F990FE90F8E0F10ED180FEFEF3E
:100F0000CE1ADE0AEE0AF6018491E7FC808101C068
:100F100010E090ED980F9A3048F390E0FC01B597FF
:100F2000E435F10508F0C3C0E65DFF4F0C9467207F
:100F30005301F2E0AF0EB11CF30180810E94EB1867
:100F40003501B5C05301F2E0AF0EB11CF301608072
:100F50007180772034F47194619471088DE20E945D
:100F6000EB18A301770C660B770B212F8AE00E9408
:100F7000FC0C35019CC05301F4E0AF0EB11CF30131
:100F8000408051806280738077205CF4709460941C
:100F900050944094411C511C611C711C8DE20E94B4
:100FA000EB18212FB301A2018AE00E94FC0C35014D
:100FB0007EC05301F2E0AF0EB11CF30140815181BC
:100FC00060E070E0212F8AE00E94FC0C35016FC0C8
:100FD0005301F4E0AF0EB11CF301408151816281F5
:100FE0007381212F8AE00E94FC0C350160C05301FF
:100FF000F2E0AF0EB11CF3014081518160E070E07E
:10100000212F80E10E94FC0C350151C05301F4E016
:10101000AF0EB11CF3014081518162817381212F98
:1010200080E10E94FC0C350142C05301F2E0AF0E9A
:10103000B11CF301408151811F3F09F410E160E0D0
:1010400070E0212F82E00E94FC0C350130C053017A
:10105000F4E0AF0EB11CF3014081518162817381D4
:101060001F3F09F410E1212F82E00E94FC0C3501A2
:101070001EC05301F4E0AF0EB11CF3016081718119
:10108000828193810E94D619350111C05301F2E08B
:10109000AF0EB11CF301808191810E94901F350138
:1010A00006C085E20E94EB1802C00E94EB18FFEF19
:1010B000CF1ADF0AEF0AF6018491E7FC80818111E3
:1010C00004CFDF91CF911F91EF90DF90CF90BF9031
:0C10D000AF907F906F905F904F9008955C
:1010DC004F925F926F927F928F929F92AF92BF923C
:1010EC00CF92DF92EF92FF920F931F93CF93DF93E8
:1010FC0000D0CDB7DEB7682E5B01742E4901E11428
:10110C00F10419F0F701408001C0412CFCE06F168E
:10111C0029F08EE0681639F0512C08C00F2EF0E340
:10112C005F2EF02D03C06894552454F860E081E0E4
:10113C000E94731E6FE784E00E94731E60E88AE0D1
:10114C000E94741FD12C08C0F501ED0DF11D6081BA
:10115C0089E00E94731ED394D714B0F3642D8DE0F4
:10116C000E94731E662D81E00E94731EECE06E12CD
:10117C0014C060E88DE00E94741F0FC084E00E94D0
:10118C00F51ED52CD82291F4982F917080FD7CC03F
:10119C00F1E0AF1AB10839F46BC00F2EF0EDAF2EA1
:1011AC00F7E0BF2EF02D1A141B0444F386E00E94C6
:1011BC00F51E682E8371D82E09F05CC08114910441
:1011CC0031F10115110519F18AE00E94F51E582E16
:1011DC00F8018081851508F457C0552009F454C0D6
:1011EC005082712C09C05401A70CB11C89E00E94DB
:1011FC00F51EF501808373947514A8F38CE00E949E
:10120C00F51E8770E114F10411F0F7018083F62DBF
:10121C00F870FF2E63FC38C08114910469F101153C
:10122C00110569F1CC2071F1F8016081625070E018
:10123C00AE014F5F5F4FC4010E942F178823B1F09E
:10124C00F801808190E0F401E80FF91F32973081AA
:10125C00298132130BC0880D991DFC0131979081A7
:10126C008A81981303C0DD24D3940EC0DF2C0CC0EC
:10127C00D92E0AC0D12C08C0DD24D39405C0DD249E
:10128C00D39402C0DD24D3948D2D0F900F90DF9159
:10129C00CF911F910F91FF90EF90DF90CF90BF9067
:1012AC00AF909F908F907F906F905F904F9008952C
:1012BC00683008F0C0C0843008F0BDC08130A9F19E
:1012CC0038F0823009F45EC0833009F488C0089588
:1012DC00423059F42AB381E090E002C0880F991F84
:1012EC006A95E2F7822B8ABB0895413061F42AB3E8
:1012FC0081E090E002C0880F991F6A95E2F7809513
:10130C0082238ABB0895411196C02AB381E090E0F4
:10131C0002C0880F991F6A95E2F7982F9095922337
:10132C009ABB9BB3892B8BBB0895423059F427B3DE
:10133C0081E090E002C0880F991F6A95E2F7822B3A
:10134C0087BB0895413061F427B381E090E002C07F
:10135C00880F991F6A95E2F78095822387BB0895C1
:10136C00411169C027B381E090E002C0880F991F3A
:10137C006A95E2F7982F9095922397BB98B3892B97
:10138C0088BB0895423059F424B381E090E002C048
:10139C00880F991F6A95E2F7822B84BB0895413020
:1013AC0061F424B381E090E002C0880F991F6A9524
:1013BC00E2F78095822384BB089541113CC024B38D
:1013CC0081E090E002C0880F991F6A95E2F7982F90
:1013DC009095922394BB95B3892B85BB089542308D
:1013EC0059F421B381E090E002C0880F991F6A95EF
:1013FC00E2F7822B81BB0895413061F421B381E087
:10140C0090E002C0880F991F6A95E2F780958223BD
:10141C0081BB089541110FC021B381E090E002C05F
:10142C00880F991F6A95E2F7982F9095922391BB9C
:08143C0092B3892B82BB0895D5
:10144400ADE0B0E0E8E2FAE00C947A1D9A8789876F
:101454007C836B83FA01DB011296CD90DC901397A9
:1014640014968D919C9115979E838D83ED90FC909D
:101474001197FA82E98216960D90BC91A02DB88737
:10148400AF83208031804280538064807580868061
:1014940097808101B42DF52DE62D7B868C869D8663
:1014A4009101A201B301C401A0E00E94DA1F4CF42F
:1014B4000E94371F8901B42FF52FE62F7B878C8775
:1014C4009D87D7FC04C0E894E1F8FA82E98291018F
:1014D400A201B301C401A0E0ED80FE800E94DA1FE6
:1014E4001CF0898182FF04C081E0E81AF10805C07C
:1014F40083FF03C091E0E91AF108CE0101965C0173
:101504008AE0C82ED12C2B2F3F2F4E2F5B856C8564
:101514007D858B819C810E94570CFC019101A20165
:10152400B301C401A0E00E94DA1F1CF0898182FF8C
:1015340012C031970F8118850E0F1F1F9101A20150
:10154400B301C401A0E00E94DA1F14F08BE201C0D1
:101554008DE2D80108C083FF07C03197AF81B885F9
:10156400AE0FBF1F80E28C93E980FA80AB81BC810F
:1015740018962D913C911997215031092E1B3F0B40
:101584008F819885E80FF91FAF0160E80D811E81F6
:1015940089859A850E94A00D9C01A985BA858D91A3
:1015A4009C9190FF07C0EB81FC818281938182171B
:0E15B40093070CF4C9012D96E2E10C94961DEC
:1015C200CF93DF930E9489110E947017882309F438
:1015D200A1C08DE790E00E947D148093A30088EE65
:1015E20093E00E940F20C0E6D0E0888389EE93E06A
:1015F2000E940F2089838AEE93E00E940F208A8343
:101602008BEE93E00E940F208B8320E012C0822F8A
:1016120090E0FC01E358FF4F3081FC01E05AFF4F9C
:101622008081381305C08091A2008F5F8093A20051
:101632002F5F243060F38091A200843009F04DC006
:1016420041E066E082E00E94270E2FEF83ED90E3F7
:10165200215080409040E1F700C0000040E066E089
:1016620082E00E94270E22E330E040E050E060E09A
:1016720070E080E490E40E945B162FEF87EA91E627
:10168200215080409040E1F700C0000022E330E0AA
:1016920040E050E060E070E080E491E40E945B167C
:1016A20060E080E00E941D1C0E94F1178FE893E029
:1016B200A0E0AF939F938F930E9450071092A200D5
:1016C2002FEF8BE792E9215080409040E1F700C074
:1016D20000000F900F900F902DC060E080E00E94FC
:1016E2001D1C0E94F11781EB93E0A0E0AF939F9342
:1016F2008F930E9450072FEF83ED90E3215080409B
:101702009040E1F700C000001092A2000F900F90ED
:101712000F9010C00E94701781110CC060E00E94EF
:101722001D1C2FEF83ED90E3215080409040E1F7A4
:0A17320000C00000DF91CF91089580
:10173C000F931F93CF93DF93FC01D9016838710588
:10174C0031F194F461387105B1F12CF46038710504
:10175C0009F478C09FC06238710509F459C0643827
:10176C00710509F46FC096C0603A710509F448C060
:10177C002CF46039710509F44BC08CC0603C7105C8
:10178C0009F476C0603F710509F472C083C0CD9135
:10179C00DC911197CE0102968D939C93452B39F0D9
:1017AC009881892F880F880B908381835BC08881F7
:1017BC008083118268C0CD91DC911197CE01049683
:1017CC008D939C93452B99F088819981AA81BB813B
:1017DC00AC01BD01770F440B542FBA018083918368
:1017EC00A283B383448345834683478328C00881FF
:1017FC0019812A813B81008311832283338345C065
:10180C00CD91DC911197CE0102968D939C9323C0C0
:10181C00CD91DC911197CE0108968D939C93788194
:10182C0069815A814B813C812D819E818F8170838E
:10183C00618352834383348325839683878381E03A
:10184C0090E02AC0CD91DC911197CE0102968D9338
:10185C009C93452BA1F099812881892F880F880BA7
:10186C002083918382838383848385838683E6CFDD
:10187C00CD91DC911197CE0102968D939C930881AA
:10188C0019810083118312821382148215821682AD
:10189C001782D5CF80E090E0DF91CF911F910F910F
:0218AC0008959D
:1018AE00A2E1B0E0EDE5FCE00C947A1DFC010A8BA0
:1018BE001B832C83732E642E552E462E7D83CC8651
:1018CE00D886BF82AE82868197819B878A87D50113
:1018DE004D915C91228133818085918501971C0108
:1018EE0037FF02C021E030E0EA85FB85E80FF91FE3
:1018FE0010824701E1E0F0E0FA83E983C9018E1915
:10190E009F099E878D87DA01A270BB27B88BAF87A0
:10191E00B885BB0FBB0BB98B1214130474F0A981DD
:10192E00BA81AB2B09F05CC0AE81BF818D919C91C9
:10193E0011978F7E8D939C9353C02A893B814C8146
:10194E00572D662D752D842D9D81A0E00E94DA1FE6
:10195E00B1F1E1E02E1A3108FC85F987AF2EB8847B
:10196E00C988DC2CEC2CFC2C0C2D1C2D2A893B81DF
:10197E004C81572D662D752D842D9D810E94821FC1
:10198E00C90129839A83EA85FB85E20DF31D805DEB
:10199E00808381E0881A91082A893B814C81572DDA
:1019AE00662D752D842D9D810E94841F2A8B3B836D
:1019BE004C83752E662E572E482E9D83ADCF8D856A
:1019CE009E85880D991D181619061CF218141904F7
:1019DE000CF0A5CFEF85F889EF2B09F0BACF9FCF8A
:0A19EE00C1016296E2E10C94961D1F
:1019F8004F925F926F927F92AF92BF92CF92DF9297
:101A0800EF92FF920F931F93CF93DF93CDB7DEB77B
:101A18002A970FB6F894DEBF0FBECDBFA82E6A0175
:101A28007B01022F82E0A81220C01CC0802F90E00A
:101A3800019741E050E002C0440F551F8A95E2F734
:101A4800052E000C660B770B4C215D216E217F2142
:101A580081E0452B462B472B09F480E0805D0E94EE
:101A6800EB1801500111E2CF52C0452B462B472BF2
:101A780039F010E035C080E30E94EB181F5F01C009
:101A880010E0101708F043C01A30A8F340C0C11482
:101A9800D104E104F104D1F0BC2C4A2C512C612C66
:101AA800712CC701B601A30192010E941A1DC22E12
:101AB800D32EE42EF52EE1E0F0E0EC0FFD1FE10F50
:101AC800F11DA29EB0181124B08209C00B30E8F4B1
:101AD800E1E0F0E0EC0FFD1FE10FF11D10821F5F48
:101AE8001017A8F212C0E12FF0E0319781E090E0E2
:101AF8008C0F9D1FE80FF91F80818A3010F0895CD8
:101B080001C0805D0E94EB1811501111ECCF2A968C
:101B18000FB6F894DEBF0FBECDBFDF91CF911F91F6
:101B28000F91FF90EF90DF90CF90BF90AF907F9094
:081B38006F905F904F9008953B
:101B40002F923F924F926F927F928F92AF92BF925D
:101B5000CF92DF92EF92FF920F931F93CF93DF9379
:101B6000CDB7DEB766970FB6F894DEBF0FBECDBF18
:101B70005C013A01862E6901C701817099279C8B0F
:101B80008B8BE0FC1DC020173107D4F47801EC18D2
:101B9000FD08FE8AED8AA70191E1E916F10410F033
:101BA00040E150E060E270E0CE0101969A8B898BB3
:101BB0000E94182089899A891C0120E8422E0BC0B6
:101BC0009601682DA301C5010E94421AC016D106D4
:101BD000ECF2C60125C090E1E916F10458F020E1CD
:101BE00030E0642DA101C5010E94421A80E1E81A8B
:101BF000F108F1CF2D893E892F70332789899A8981
:101C0000AC0160E8C5010E94421A8B899C89892B2E
:101C100031F49601682DA301C5010E94421AC80142
:101C200066960FB6F894DEBF0FBECDBFDF91CF91A1
:101C30001F910F91FF90EF90DF90CF90BF90AF90EA
:0E1C40008F907F906F904F903F902F9008955F
:101C4E00683008F06FC0843008F06CC0813001F14C
:101C5E0030F08230B1F1833009F44CC00895413038
:101C6E0059F42BB381E090E002C0880F991F6A955A
:101C7E00E2F7822B8BBB08952BB381E090E002C07C
:101C8E00880F991F6A95E2F7809582238BBB089582
:101C9E00413059F428B381E090E002C0880F991FBB
:101CAE006A95E2F7822B88BB089528B381E090E015
:101CBE0002C0880F991F6A95E2F78095822388BB30
:101CCE000895413059F425B381E090E002C0880FA9
:101CDE00991F6A95E2F7822B85BB089525B381E0A3
:101CEE0090E002C0880F991F6A95E2F780958223D3
:101CFE0085BB0895413059F422B381E090E002C0D3
:101D0E00880F991F6A95E2F7822B82BB089522B342
:101D1E0081E090E002C0880F991F6A95E2F78095E6
:061D2E00822382BB089530
:101D340010C00E94472058F00E94402040F029F42F
:101D44005F3F29F00C94612051110C944F200C94A6
:101D54008C200E94F81C68F39923B1F3552391F366
:101D6400951B550BBB27AA2762177307840738F006
:101D74009F5F5F4F220F331F441FAA1FA9F335D063
:101D84000E2E3AF0E0E832D091505040E695001C17
:101D9400CAF72BD0FE2F29D0660F771F881FBB1FD1
:101DA400261737074807AB07B0E809F0BB0B802DAF
:101DB400BF01FF2793585F4F3AF09E3F510578F0DB
:101DC4000C9461200C944F205F3FE4F3983ED4F3CD
:101DD400869577956795B795F7959F5FC9F7880FAF
:101DE400911D9695879597F90895E1E0660F771F01
:101DF400881FBB1F621773078407BA0720F0621B92
:0E1E0400730B840BBA0BEE1F88F7E095089560
:101E1200CF92DF92EF929B01482F13BEFB01849178
:101E220047FD8081811113C06901E42E92E0C90E41
:101E3200D11CE11CF6019491E7FC9081913039F4B8
:101E420089B7816089BF8FB780688FBF1BC082301E
:101E520099F46901E42E82E0C80ED11CE11CF6015E
:101E62008491E7FC8081813039F489B7826089BF2F
:101E72008FB780688FBF06C089B78E7F89BF89B749
:101E82008D7F89BF83B7806883BF53B7F90184917F
:101E920047FD8081A82FA170B0E00024B695A795D8
:101EA2000794B695A7950794BA2FA02D982F9270F4
:101EB200892F90E0880F991F880F991F8A2B852BF5
:101EC20083BFA42FC9010396A11DFC018491A7FD24
:101ED200808182BF2C5F3F4F4F4FF901849147FDB4
:0C1EE20080818CBFEF90DF90CF900895BE
:101EEE00CF93DF93DC01F90164387105D9F164F405
:101EFE006138710521F16238710509F440C060380E
:101F0E00710509F054C02EC060397105C1F184F419
:101F1E006838710509F04BC0C081D181CE0102969F
:101F2E0091838083E881F981ED93FC9340833CC0DB
:101F3E00603A7105B9F0603C7105A1F038C0C081FE
:101F4E00D181CE01029691838083E881F981ED9350
:101F5E00FC93052E000C660B770B40835183628336
:101F6E00738322C0C081D181CE010296918380837A
:101F7E00E881F981ED93FC935183408315C0C081B4
:101F8E00D181CE01029691838083E881F981ED9310
:101F9E00FC9351834083852F880F880B8283838324
:101FAE00848385838683878381E090E002C080E00E
:081FBE0090E0DF91CF9108953E
:101FC6000FC00E94402038F00E94472020F0952341
:101FD60011F00C9461200C948C2011240C944F2049
:101FE6000E94F81C70F3959FC1F3950F50E0551FA2
:101FF600629FF001729FBB27F00DB11D639FAA2758
:10200600F00DB11DAA1F649F6627B00DA11D661FA6
:10201600829F2227B00DA11D621F739FB00DA11DC7
:10202600621F839FA00D611D221F749F3327A00D81
:10203600611D231F849F600D211D822F762F6A2F1D
:1020460011249F5750409AF0F1F088234AF0EE0F82
:10205600FF1FBB1F661F771F881F91505040A9F7AF
:102066009E3F510580F00C9461200C944F205F3FF9
:10207600E4F3983ED4F3869577956795B795F795EB
:10208600E7959F5FC1F7FE2B880F911D9695879563
:0420960097F9089519
:10209A00A2E0B0E0E3E5F0E10C947A1D1C014B01EB
:1020AA00FA01DB0112962D913C91139714964D90EB
:1020BA005C9015978D919C9111979A8389831696B6
:1020CA006D907C90179737FD03C08D7F9A83898323
:1020DA000081118122813381448155816681778112
:1020EA00FE0131965F0188E0C82ED12C7201C4012D
:1020FA000E94570C298124FF06C00197F301E80FBB
:10210A00F91F20E32083298123FF06C00197F301E9
:10211A00E80FF91F20E22083E980FA80D40118969B
:10212A002D913C91199721503109281B390B860DA5
:10213A00971DAC0160E88201C1010E94A00D9C01BB
:10214A00F1018081918190FF08C0D40112968D918E
:10215A009C911397821793070CF4C9012296E2E126
:04216A000C94961D1E
:10216E00CF93C82F84FB442740F960E081E00E94A2
:10217E00270EC5FB442740F961E081E00E94270E3F
:10218E00C6FB442740F962E081E00E94270E4C2FE7
:10219E00441F4427441F64E081E00E94270E40E064
:1021AE0063E080E00E94270E41E062E080E00E9442
:1021BE00270E85E08A95F1F7000040E062E080E0AE
:1021CE000E94270E8FE193E00197F1F700C0000007
:1021DE004C2F417060E081E00E94270EC1FB442726
:1021EE0040F961E081E00E94270EC2FB442740F9CE
:1021FE0062E081E00E94270EC3FB442740F964E0B1
:10220E0081E00E94270E41E062E080E00E94270EEE
:10221E0095E09A95F1F7000040E062E080E00E94C0
:10222E00270E8FE39FE10197F1F700C00000CF91D9
:02223E00089501
:10224000CF93C82F84FB442740F960E081E00E94CF
:10225000270EC5FB442740F961E081E00E94270E6C
:10226000C6FB442740F962E081E00E94270E4C2F14
:10227000441F4427441F64E081E00E94270E41E090
:1022800063E080E00E94270E41E062E080E00E946F
:10229000270E85E08A95F1F7000040E062E080E0DB
:1022A0000E94270E8FE193E00197F1F700C0000034
:1022B0004C2F417060E081E00E94270EC1FB442753
:1022C00040F961E081E00E94270EC2FB442740F9FB
:1022D00062E081E00E94270EC3FB442740F964E0DE
:1022E00081E00E94270E41E062E080E00E94270E1C
:1022F00095E09A95F1F7000040E062E080E00E94EE
:10230000270E8FE39FE10197F1F700C00000CF9106
:0223100008952E
:102312000F931F93CF93DF93CDB7DEB760970FB6BE
:10232200F894DEBF0FBECDBF0E94601E182F84310D
:1023320030F440E067E082E00E94270E22C089313B
:1023420030F441E067E082E00E94270E1AC08E312D
:10235200C0F041E067E082E00E94270E41E066E0C3
:1023620082E00E94270E2FEF89E698E121508040FB
:102372009040E1F700C0000040E066E082E00E9489
:10238200270E1F921F9380E893E0A0E0AF939F93E4
:102392008F938E010F5F1F4F1F930F930E94AC1EEE
:1023A20080E80E94B710C8010E944D1E2FEF81EEF7
:1023B20094E0215080409040E1F700C000000FB649
:1023C200F894DEBF0FBECDBF60960FB6F894DEBFA5
:0E23D2000FBECDBFDF91CF911F910F910895E7
:1023E00011C00E94402038F00E94472020F039F4AC
:1023F0009F3F19F426F40C948C200EF4E095E7FB33
:102400000C946120E92F0E94F81C58F3BA17620758
:1024100073078407950720F079F4A6F50C944E20F5
:102420000EF4E0950B2EBA2FA02D0B01B9019001EF
:102430000C01CA01A0011124FF27591B99F0593F33
:1024400050F4503E68F11A16F040A22F232F342F7B
:102450004427585FF3CF469537952795A795F040C9
:102460005395C9F77EF41F16BA0B620B730B840BDE
:10247000BAF09150A1F0FF0FBB1F661F771F881F96
:10248000C2F70EC0BA0F621F731F841F48F48795EE
:1024900077956795B795F7959E3F08F0B0CF9395E0
:0E24A000880F08F09927EE0F979587950895FD
:1024AE002F923F924F926F927F928F92AF92BF92E6
:1024BE00CF92DF92EF92FF920F931F93CF93DF9302
:1024CE00CDB7DEB727970FB6F894DEBF0FBECDBFE0
:1024DE006C017B013901842E980181EF282E83E057
:1024EE00382E80E0482E87E0F101AE014F5F5F4F3E
:1024FE00DA01742D0E949D1FF70102811381A480C1
:10250E00B580E080F18061147104810419F43A0100
:10251E00F0E88F2E2115310529F4882DB3010E9484
:10252E00FA1D9C0117FD04C00217130708F4980149
:10253E008501682DA301C6010E94A00D27960FB636
:10254E00F894DEBF0FBECDBFDF91CF911F910F91DB
:10255E00FF90EF90DF90CF90BF90AF908F907F90D5
:0A256E006F904F903F902F9008955A
:102578000E94F1170E94BF1E0E94D11E8091A000E8
:102588001F928F9381ED93E0A0E0AF939F938F9379
:102598000E9450072FEF89E698E121508040904033
:1025A800E1F700C000008091A0000F900F900F90FD
:1025B8000F900F9081110EC040E064E00E94270E3A
:1025C80040E065E080E00E94270E40E066E080E0A1
:1025D8000E94270E8091A0009FEF980F923080F400
:1025E80041E064E080E00E94270E40E065E080E082
:1025F8000E94270E40E066E080E00E94270E0895C2
:102608008350873058F441E065E080E00E94270E4F
:1026180040E066E080E00E94270E089541E066E011
:0826280080E00E94270E0895D6
:1026300041E060E083E00E94270E85E38A95F1F790
:10264000000040E060E083E00E94270E61E083E04C
:102650000E9471188823D1F30CC080918C00909156
:102660008D00019690938D0080938C0082E00E94F3
:10267000AA1F61E083E00E947118813071F36091BC
:102680008C0070918D00072E000C880B990B0E9416
:10269000B01823E333E343E350E40E947F2028E2B1
:1026A0003EE74CE85CE30E947F209B01AC010E9466
:1026B0003A2060938100709382008093830090930E
:1026C000840010928D0010928C008FE39CE901979A
:1026D000F1F700C00000609181007091820080914C
:0826E00083009091840008952D
:1026E80041E060E080E00E94270E85E38A95F1F7DB
:1026F800000040E060E080E00E94270E61E080E09A
:102708000E9471188823D1F30CC080918E0090919B
:102718008F00019690938F0080938E0082E00E9434
:10272800B61F61E080E00E947118813071F36091FA
:102738008E0070918F00072E000C880B990B0E9459
:10274800B01823E333E343E350E40E947F2028E2F8
:102758003EE74CE85CE30E947F209B01AC010E94AD
:102768003A20609385007093860080938700909349
:10277800880010928F0010928E008FE39CE90197D9
:10278800F1F700C00000609185007091860080918B
:0827980087009091880008956C
:1027A000A2E0B0E0E6EDF3E10C947A1D3C014B01B0
:1027B000FA01DB0112962D913C91139714964D90DE
:1027C0005C9015978D919C9111979A8389831696A9
:1027D0002D903C90179737FD03C08D7F9A83898396
:1027E0000081118122813381448155816681778105
:1027F000FE0131965F018AE0C82ED12C7201C4011E
:102800000E94570CE980FA80D40118962D913C91D2
:10281000199721503109281B390B820D931DAC01EA
:1028200060E88201C3010E94A00D9C01F301808138
:10283000918190FF08C0D40112968D919C911397BD
:10284000821793070CF4C9012296E2E10C94961DBD
:10285000CF930E947315C8E010C06C2F80E00E94D7
:102860001D1C89E493E0A0E0AF939F938F930E9497
:102870005007CF5F0F900F900F90C83770F3C8E0EC
:1028800010C06C2F87E00E941D1C89E493E0A0E03B
:10289000AF939F938F930E945007CF5F0F900F903D
:1028A0000F90C83770F3C1E010C065E08C2F0E9414
:1028B0001D1C8BE493E0A0E0AF939F938F930E9445
:1028C0005007CF5F0F900F900F90C73070F3C1E0AB
:1028D00010C069E78C2F0E941D1C8BE493E0A0E0E0
:1028E000AF939F938F930E945007CF5F0F900F90ED
:0A28F0000F90C73070F3CF910895E8
:1028FA00AF92BF92CF92EF92FF920F931F93CF9313
:10290A00DF93CDB7DEB72A970FB6F894DEBF0FBEB6
:10291A00CDBF5C0189E08A8760E88EE00E94561F7D
:10292A0060E08DE00E94731E83E9898380E28A83D6
:10293A00C12CE12CF12C8E01065F1F4F9E012F5FE7
:10294A003F4F42E0B9018CE00E946E08882399F05B
:10295A0020E00EC0822F90E0F501E80FF91FA1E0F8
:10296A00B0E0AC0FBD1FA80FB91F8C9180832F5FF9
:10297A00243080F381E02A960FB6F894DEBF0FBEAA
:10298A00CDBFDF91CF911F910F91FF90EF90CF9024
:06299A00BF90AF9008950C
:1029A0006F927F928F92EF92FF920F931F93CF932C
:1029B000DF93CDB7DEB761970FB6F894DEBF0FBED9
:1029C000CDBFFE01319651E1DF011D925A95E9F725
:1029D000A2E0B1E0BA83A9839C838B8377FF09C00F
:1029E0008FE490E090936700809366008FEF9FEFF5
:1029F00019C03901842E7C01615071097F836E8377
:102A00009801682DA301CF010E94CB1D48855985EF
:102A10002E813F814217530708F49A01F701E20F14
:102A2000F31F108261960FB6F894DEBF0FBECDBFC4
:102A3000DF91CF911F910F91FF90EF908F907F903A
:042A40006F900895F6
:102A440088249924F401E401B0E49F93AA279A15F9
:102A54008B049C04ED05FE05CF05D007A10798F46F
:102A6400AD2FDC2FCF2FFE2FE92D982C892E982FF8
:102A7400872F762F652F542F432F322F2227B850BC
:102A840031F7BF9127C01B2EBF91BB27220F331FE5
:102A9400441F551F661F771F881F991F881C991C88
:102AA400EE1FFF1FCC1FDD1FAA1FBB1F8A149B0430
:102AB400EC05FD05CE05DF05A007B10748F08A182F
:102AC4009B08EC09FD09CE09DF09A00BB10B2160BD
:102AD4001A94E1F62EF49401AF01BE01CD01000C6D
:022AE400089553
:102AE6000E9455208EEA0E94471F85ED0E94471FCF
:102AF60080E80E94471F88EA0E94471F8FE30E94D2
:102B0600471F83ED0E94471F80E00E94471F80E415
:102B16000E94471F8DE80E94471F84E10E94471FBD
:102B260080E20E94471F80E00E94471F81EA0E94C0
:102B3600471F88EC0E94471F8AED0E94471F82E1CB
:102B46000E94471F81E80E94471F8FEC0E94471F83
:102B560089ED0E94471F81EF0E94471F8BED0E945F
:102B6600471F80E40E94471F84EA0E94471F86EAA7
:102B76000E94471F8FEA0E94471F0E94F11708957F
:102B8600CF92DF92EF92DC0190E0292F30E0220F06
:102B9600331F6901032E000CEE086E2DA601455267
:102BA6005C4F6F4F6A01E62EFA018491E7FC808143
:102BB60081110DC02F5F3F4F032E000C440B255291
:102BC6003C4F4F4FF901849147FD808124C0CD9041
:102BD600DD90EC901297F6014491E7FC4081841356
:102BE60015C02F5F3F4F032E000C440B25523C4F60
:102BF6004F4FF901949147FD90815FEFC51AD50AB1
:102C0600E50ACD92DD92EC92129701C09F5F9B3050
:0E2C160008F4BBCF892FEF90DF90CF90089588
:102C24000F931F93CF93DF93DB012D913C91119769
:102C340030FF25C017964D915C91189715962D91EC
:102C44003C9116974217530778F41296ED91FC9134
:102C54001397808312962D913C9113972F5F3F4FCA
:102C640013963C932E93129717962D913C91189797
:102C74002F5F3F4F18963C932E93179715C01D96C0
:102C8400ED91FC911E97309719F48FEF9FEF0CC0D4
:102C94008B01EC010995892BC1F7F8018781908597
:102CA400019690878783CE01DF91CF911F910F9179
:022CB400089581
:102CB600CF92DF92EF92FF926B017C01DA01C9019C
:102CC600880F991FAA1FBB1F880F991FAA1FBB1F1A
:102CD600880F991FAA1FBB1F880F991FAA1FBB1F0A
:102CE6009C01AD01220F331F441F551F220F331FB6
:102CF600441F551F60E074E284EF90E00E941A1DA5
:102D060037BD26BDB90180E090E00E94AE18A7014C
:102D160096010E947F2020E030E048EC52E40E94B9
:102D26007B200E94761A7BBD6ABD8EB59EB5887FD4
:102D36008360892B8EBDFF90EF90DF90CF90089532
:102D4600CF939B01482FF901849147FD8081803202
:102D5600C9F1682F082E000C770B69507109653090
:102D6600710580F18B3249F5A0E0B0E02F5F3F4F4F
:102D76004F4F02C0A0E0B0E080E090E0CAE0F90169
:102D8600649147FD6081062E000C770B6053710934
:102D96006A30710560F4C89FF001C99FF00D1124D7
:102DA6002F5F3F4F4F4FCF01861B970BE8CFAB2BC3
:102DB60069F491958195910909C08D32D9F6A1E002
:102DC600B0E0D4CF2F5F3F4F4F4FBDCFCF91089587
:102DD6008130A9F028F0823009F1833071F108952D
:102DE600623019F48FEF8ABB0895611104C01ABAD4
:102DF6008FEF8BBB0895613071F51ABA0895623072
:102E060019F48FEF87BB0895611104C017BA8FEFCD
:102E160088BB08956130F9F417BA0895623019F441
:102E26008FEF84BB0895611104C014BA8FEF85BB80
:102E36000895613081F414BA0895623019F48FEF61
:102E460081BB0895611104C011BA8FEF82BB08954A
:082E5600613009F411BA08957E
:102E5E00EF92FF920F931F93CF93DF937C01C62FB8
:102E6E008A0160E081E00E94731E64E085E00E94AA
:102E7E00731E60E88AE00E94741FA7016C2F89E020
:102E8E000E94311863E081E00E94731EC8E8D3E10E
:102E9E0085E00E94F51E982F947082FD03C0219745
:102EAE00B9F70FC060E081E00E94731E82E20E94BB
:102EBE00F51EF801808381E20E94F51EF8018183E0
:102ECE0091E0892FDF91CF911F910F91FF90EF909D
:022EDE00089555
:102EE000CF92EF92FF920F931F93CF93DF9300D077
:102EF00000D00F92CDB7DEB782E08B8387E08C8362
:102F000060E88EE00E94561F86E28D83C12CCE01C0
:102F100004967C018E010D5F1F4F9E012F5F3F4F76
:102F200041E0BE016B5F7F4F8CE00E946E088823FA
:102F300059F08B81823029F48C81882321F080E044
:102F400003C080E001C081E00F900F900F900F90C0
:102F50000F90DF91CF911F910F91FF90EF90CF9045
:022F60000895D2
:102F6200CF93DF930E94B21C34C00E947017882353
:102F720081F181E08093A10060E080E00E941D1C4D
:102F82000E94F1178CE593E0A0E0AF939F938F939B
:102F92000E9450078DE790E00E947D148093A30069
:102FA200CDE7D0E0688188EE93E00E94C21F69817C
:102FB20089EE93E00E94C21F6A818AEE93E00E942A
:102FC200C21F6B818BEE93E00E94C21F0F900F9085
:102FD2000F908091A100882341F2DF91CF91089553
:102FE200CF93DF9381E20E94471F80E00E94471F38
:102FF2008FE70E94471F82E20E94471F80E00E94E3
:10300200471F87E00E94471F8CE30E94FB1F80E45A
:103012000E948920C0E0D0E004C080E00E948920A4
:103022002196C11584E0D807C4F381E20E94471FAC
:1030320080E00E94471F8FE70E94471F82E20E94A2
:10304200471F80E00E94471F87E00E94471F8CE3D2
:103052000E94FB1F80E40E948920DF91CF91089596
:10306200CF92DF92FF920F931F93CF93DF93CDB74F
:10307200DEB76E970FB6F894DEBF0FBECDBF6A0102
:10308200FF24F394F60E90E0880F991F8E778983C0
:1030920088B3877F88BB89810E946D2001E010E0A0
:1030A20009C0F601E00FF11F319780810E946D2067
:1030B2000F5F1F4F8F2D90E00817190794F388B305
:1030C200886088BB6E960FB6F894DEBF0FBECDBF88
:1030D200DF91CF911F910F91FF90DF90CF900895D4
:1030E200813089F028F08230C9F0833011F133C089
:1030F20089B390E002C0959587956A95E2F780FFC3
:1031020023C091E028C086B390E002C095958795D0
:103112006A95E2F780FF1AC091E01DC083B390E088
:1031220002C0959587956A95E2F780FF11C091E0FC
:1031320012C080B390E002C0959587956A95E2F738
:1031420080FF08C091E007C090E005C090E003C096
:0A31520090E001C090E0892F08957D
:10315C00E89409C097FB3EF4909580957095619525
:10316C007F4F8F4F9F4F9923A9F0F92F96E9BB27DB
:10317C009395F695879577956795B795F111F8CF57
:10318C00FAF4BB0F11F460FF1BC06F5F7F4F8F4FC2
:10319C009F4F16C0882311F096E911C0772321F0B8
:1031AC009EE8872F762F05C0662371F096E8862F50
:1031BC0070E060E02AF09A95660F771F881FDAF7A7
:0A31CC00880F9695879597F90895EE
:1031D600CF93DF93D82F8091650090E005968038D5
:1031E600910514F4DA3011F40E940520DA3049F121
:1031F600D052C0E02D2F30E0C901880F991F880FEB
:10320600991F280F391F2C0F311D032E000C440B5C
:1032160022593E4F4F4FF901849147FD80810E940C
:103226008920909165009F5F90936500CF5FC530C0
:1032360009F780E00E948920809165008F5F809366
:083246006500DF91CF910895AE
:10324E001F920F920FB60F9211242F933F934F930D
:10325E005F936F937F938F939F93AF93BF93EF93F0
:10326E00FF93E0919C00F0919D00309741F048E76C
:10327E0050E060E8809198009091990009958091B6
:10328E00A500882339F0E0919A00F0919B003097C9
:10329E0009F00995FF91EF91BF91AF919F918F9199
:1032AE007F916F915F914F913F912F910F900FBE34
:0632BE000F901F9018950F
:1032C4001F920F920FB60F9211242F933F934F9397
:1032D4005F936F937F938F939F93AF93BF93EF937A
:1032E400FF93E0919C00F0919D00309741F048E7F6
:1032F40050E060E880919800909199000995809140
:10330400A500882339F0E0919A00F0919B00309752
:1033140009F00995FF91EF91BF91AF919F918F9122
:103324007F916F915F914F913F912F910F900FBEBD
:063334000F901F90189598
:10333A0080916800863021F48BB780648BBF03C00C
:10334A008BB78F7B8BBF80916900873021F48BB755
:10335A0080688BBF03C08BB78F778BBF80916A0061
:10336A00853021F48BB780628BBF03C08BB78F7D0A
:10337A008BBFE8E6F0E0938185B7892B85BF84810E
:10338A0090E0880F991F880F991F95B7892B85BFE1
:10339A00858120E4829FC001112494B7892B84BFC0
:0233AA00089584
:1033AC008F929F92AF92BF92CF92DF92EF92FF9249
:1033BC006B017C010E94761A4B015C012FEFAB0173
:1033CC00BC018AE00E94FC0C8EE20E94EB18C50145
:1033DC00B4010E94AE189B01AC01C701B6010E945A
:1033EC00392020E034E244E759E40E947F200E9417
:1033FC00761AAB01BC012FEF8AE00E94FC0CFF9007
:10340C00EF90DF90CF90BF90AF909F908F900895EA
:10341C009AB321E030E002C0220F331F8A95E2F705
:10342C00209529232ABB80918A00811107C087B17E
:10343C00806487B987B18F7787B908C0813031F440
:10344C0087B18F7B87B987B18F7787B996B1E9E858
:10345C00F0E08081892B86B986B1806886B982813B
:10346C00813021F487B1806287B90895811103C03E
:08347C0087B18F7D87B9089527
:103484006F927F928F92CF92DF92EF920F931F935E
:10349400CF93DF938C016A01E62EE9013A01862E6F
:1034A400620E731E811C37FD8A94C614D704E80487
:1034B40079F0F6018491E7FC8081B801082E000CB4
:1034C400990B0E9412168FEFC81AD80AE80AEDCF9A
:1034D400CE01DF91CF911F910F91EF90DF90CF90AC
:0834E4008F907F906F90089516
:1034EC000E94001D88F09F5798F0B92F9927B7516B
:1034FC00B0F0E1F0660F771F881F991F1AF0BA958C
:10350C00C9F714C0B13091F00E944E20B1E008957B
:10351C000C944E20672F782F8827B85F39F0B93F6D
:10352C00CCF3869577956795B395D9F73EF490953E
:0E353C008095709561957F4F8F4F9F4F08953A
:10354A001F920F920FB60F9211242F933F934F930E
:10355A005F936F937F938F939F93AF93BF93EF93F1
:10356A00FF9380919E0090919F00892B29F0E09112
:10357A009E00F0919F000995FF91EF91BF91AF9145
:10358A009F918F917F916F915F914F913F912F9171
:0A359A000F900FBE0F901F901895C0
:1035A4001F920F920FB60F9211242F933F934F93B4
:1035B4005F936F937F938F939F93AF93BF93EF9397
:1035C400FF9380919E0090919F00892B29F0E091B8
:1035D4009E00F0919F000995FF91EF91BF91AF91EB
:1035E4009F918F917F916F915F914F913F912F9117
:0A35F4000F900FBE0F901F90189566
:1035FE008EB18E7F8EB98DB18F7D8DB98DB1877F56
:10360E008DB98DB18B7F8DB98DB18F778DB98DB110
:10361E0080648DB987B3806287BB87B3806887BBB0
:10362E0087B3886087BB87B38F7B87BB88B388607F
:10363E0088BB8DB180618DB98DB181608DB98DB131
:06364E008D7F8DB9089587
:103654001F920F920FB60F9211242F933F934F9303
:103664005F936F937F938F939F93AF93BF93EF93E6
:10367400FF93E0919400F0919500309709F009953B
:10368400FF91EF91BF91AF919F918F917F916F9136
:103694005F914F913F912F910F900FBE0F901F900C
:0236A400189577
:1036A6001F920F920FB60F9211242F933F934F93B1
:1036B6005F936F937F938F939F93AF93BF93EF9394
:1036C600FF93E0919200F0919300309709F00995ED
:1036D600FF91EF91BF91AF919F918F917F916F91E4
:1036E6005F914F913F912F910F900FBE0F901F90BA
:0236F600189525
:1036F8001F920F920FB60F9211242F933F934F935F
:103708005F936F937F938F939F93AF93BF93EF9341
:10371800FF93E0919000F0919100309709F009959E
:10372800FF91EF91BF91AF919F918F917F916F9191
:103738005F914F913F912F910F900FBE0F901F9067
:023748001895D2
:10374A001F920F920FB60F9211242F933F934F930C
:10375A005F936F937F938F939F93AF93BF93EF93EF
:10376A00FF93E0919600F0919700309709F0099540
:10377A00FF91EF91BF91AF919F918F917F916F913F
:10378A005F914F913F912F910F900FBE0F901F9015
:02379A00189580
:10379C0090E0880F991F9091A400892B83B986B76C
:1037AC008F7D86BF86B7806886BF06B607FEFDCFC5
:1037BC008091A400811106C081B1887F883151F4B9
:1037CC008FEF0895813041F481B1887F803431F4DA
:1037DC008FEF08958EEF089580E008958EEF089591
:1037EC0062E081E00E94EB1642E063E080E00E9420
:1037FC005E0942E062E080E00E945E092FEF83EFF9
:10380C0091E0215080409040E1F700C0000082E33D
:10381C000E94B71088E20E94B7108CE00E94B7108B
:0E382C0086E00E94B71081E00E94B710089558
:10383A00CF93DF93883000F56623F4F0D62FC82F94
:10384A00809364006093650081E20E94471F8D2F78
:10385A000E94471F8FE70E94471F82E20E94471F6C
:10386A008C2F0E94471F87E00E94471F8CE30E940B
:0E387A00FB1F80E40E948920DF91CF9108950A
:103888000E94271F0E94F11F0E94FF1A0E94E31D39
:103898000E94D51C42E064E080E00E945E0942E09C
:1038A80065E080E00E945E0942E066E080E00E94F8
:1038B8005E0942E066E082E00E945E0942E065E05F
:0C38C80083E00E945E090E9473150895C1
:1038D40097B1907E97B997B1892B87B986B18064E7
:1038E40086B9349BFECF80918B00813061F424B182
:1038F40035B10024220F331F001C220F331F001C7C
:10390400232F302D06C0811103C024B135B101C06D
:083914000895822F932F0895FE
:10391C00990F0008550FAA0BE0E8FEEF16161706D4
:10392C00E807F907C0F012161306E407F50798F03C
:10393C00621B730B840B950B39F40A2661F0232B55
:10394C00242B252B21F408950A2609F4A140A695D1
:08395C008FEF811D811D08950C
:10396400CF93DF93CDB7DEB72F970FB6F894DEBFB2
:103974000FBECDBF2DE433E040E08FE0F901DE015E
:103984001196742F0E949D1F0E942814CE01019647
:103994000E94251E2F960FB6F894DEBF0FBECDBF32
:0639A400DF91CF910895B0
:1039AA0060E88AE20E94731E6AE98BE20E94731E33
:1039BA0063E08CE20E94731E68EE8DE20E94731E21
:1039CA0060E485E10E94731E6DE381E10E94731E2B
:1039DA0084E10E94F51E8370833021F063E084E164
:0639EA000E94741F089505
:1039F00057FD9058440F551F59F05F3F71F04795A0
:103A0000880F97FB991F61F09F3F79F08795089584
:103A1000121613061406551FF2CF4695F1DF08C0A3
:103A2000161617061806991FF1CF869571056105C0
:043A30000894089559
:103A3400A1E21A2EAA1BBB1BFD010DC0AA1FBB1FAE
:103A4400EE1FFF1FA217B307E407F50720F0A21B20
:103A5400B30BE40BF50B661F771F881F991F1A948D
:103A640069F760957095809590959B01AC01BD01B7
:043A7400CF010895E1
:103A7800FA0160387105CCF0623871051CF06338C2
:103A8800710599F4A081B1819D012C5F3F4F31836D
:103A980020834D915D916D917C91FC014083518310
:103AA8006283738381E090E0089580E090E0089558
:103AB80097FB10F8169400080F93083098F00850F8
:103AC800232F342F452F562F672F782F892F902D8E
:103AD800F4CF05949795879577956795579547956A
:0C3AE800379527950A95AAF70F910895CD
:103AF4002F923F924F925F926F927F928F929F92FA
:103B0400AF92BF92CF92DF92EF92FF920F931F93E7
:103B1400CF93DF93CDB7DEB7CA1BDB0B0FB6F89498
:083B2400DEBF0FBECDBF099406
:103B2C002A88398848885F846E847D848C849B8441
:103B3C00AA84B984C884DF80EE80FD800C811B814F
:103B4C00AA81B981CE0FD11D0FB6F894DEBF0FBE7E
:063B5C00CDBFED0108954C
:103B62000E94441C0E94B1170E94271F0E94171F27
:103B72000E94731542E064E080E00E945E0942E028
:103B820065E080E00E945E0942E066E080E00E941B
:043B92005E0908952B
:103B9600A2E0B0E0E1EDFDE10C94881D8C013A83D2
:103BA60029839E012F5F3F4F0E94FF01F80120816C
:103BB60024FF02C08FEF9FEF2296E4E00C94A41D31
:103BC6008CB59DB51DBC1CBC8FB58E7F8FBD8FB5CA
:103BD60082608FBD8EB588608EBD8EB580618EBDCC
:0E3BE6008FB58F7B8FBD8FB580688FBD089522
:103BF400CF92DF92EF926B01E82EA82FCB01FC014C
:103C04002491A7FD2081222319F00196A11DF7CF4D
:0C3C14008C199D09EF90DF90CF9008956F
:103C2000613029F490939500809394000895623058
:103C300029F490939300809392000895633021F4C7
:0A3C40009093910080939000089586
:103C4A00CF93DF93EC0169E183E00E941D1CCE0152
:103C5A00A0E8AF939F93CF930E9450070F900F90C5
:083C6A000F90DF91CF91089546
:103C7200AA1BBB1B51E107C0AA1FBB1FA617B70790
:103C820010F0A61BB70B881F991F5A95A9F78095AC
:083C92009095BC01CD010895DD
:103C9A000F931F93CF938C01C0E003C00E942011A1
:103CAA00CF5FF801EC0FF11D80818111F7CFCF9121
:063CBA001F910F91089517
:103CC00081E00E946A1C24EF31E0AC01429FC001F8
:103CD000439F900D529F900D11246FEF73E00E944F
:063CE000391E862F089535
:103CE600CF93C62F98B3977F98BB90E0880F991F04
:103CF6008E770E946D208C2F0E946D2088B388607D
:063D060088BBCF91089577
:103D0C0062E083E890E20E94101E8FB780688FBF3C
:103D1C000E94991E0E949D190E94B11D0E94E10AE9
:063D2C000E94BC12FBCF57
:103D320081B38B7F81BB82B3846082BB81B3877F77
:103D420081BB82B3886082BB87B38B7F87BB88B31A
:063D5200846088BB0895A7
:103D5800A0E0B0E0E2EBFEE10C948A1D9E01265F34
:103D68003F4F4F81588569858D819E810E94CE1F66
:063D7800E2E00C94A61D20
:103D7E000E94741320E030E040EA51E40E94722069
:103D8E0088233CF48091A0008F3F19F08F5F8093C1
:043D9E00A0000895E4
:103DA2000E94181320E030E040EA51E40E947220A1
:103DB20088233CF48091A000882319F081508093DD
:043DC200A0000895C0
:103DC6008093A40086B7846A86BF06B607FEFDCF39
:103DD60081B1887F883011F0803111F48FEF08951A
:043DE6008EEF0895BF
:103DEA0098B3977F98BB90E0880F991F8E77806869
:103DFA000E946D2080E00E946D2098B3986098BB65
:023E0A00089519
:103E0C00092E0394000C11F4882352F0BB0F40F4DC
:103E1C00BF2B11F460FF04C06F5F7F4F8F4F9F4F1C
:023E2C000895F7
:103E2E0042E060E083E00E945E0941E061E083E0F1
:103E3E000E945E096EE670E080E80E94090F089508
:103E4E0042E060E080E00E945E0941E061E080E0D7
:103E5E000E945E0963E770E080E80E94090F0895F2
:103E6E0060957095809590953095409550952195DB
:103E7E003F4F4F4F5F4F6F4F7F4F8F4F9F4F089565
:103E8E00CF93C82F8CE30E94FB1F80E00E948920F5
:0E3E9E008C2F0E9489200E948620CF910895CB
:103EAC00CF93DF93D82FC62F0E94F51EC0956C2F91
:0E3EBC0068238D2F0E94731EDF91CF91089511
:103ECA0083B986B7806886BF06B607FEFDCF81B183
:0E3EDA00887F883211F48FEF08958EEF0895DF
:103EE800CF93DF93D82FC62F0E94F51E682F6C2B17
:0C3EF8008D2F0E94731EDF91CF91089562
:103F0400689401C0E8948F929F92CF93DF930E94AC
:0C3F14002215DF91CF919F908F900895AF
:103F2000CF93DF93EC0103C021960E94EB188881A8
:0A3F30008111FACFDF91CF910895BF
:103F3A00992777FD05C005900D920197E1F708953D
:0A3F4A0001900D920197E1F7089530
:103F5400823008F482E081508CBF08B607FCFDCFA4
:083F640088B7806888BF08954A
:103F6C00823008F482E081508CBF08B607FCFDCF8C
:083F7C0088B7806888BF089532
:103F8400E199FECF9FBB8EBB6DBB8CB384608CBBB1
:083F94008CB382608CBB089520
:103F9C000F931F9389019A01462F6FEF7FE70E94C1
:083FAC00D0141F910F9108953C
:103FB4000024A7FD00942A1730054005500560052C
:083FC4007005800590050895C9
:103FCC00EC010E9497200E949620CE010E9498201E
:063FDC00CE010E949420BA
:103FE2000E94772042E067E082E00E945E090E9420
:043FF200F61B08951D
:103FF600CF93C82F80E00E94E31E8C2F0E94CE1B19
:04400600CF910895B9
:10400A00809164008F5F87708093640060E00E94F3
:04401A001D1C0895CC
:10401E00E199FECF9FBB8EBB8CB381608CBB8DB301
:02402E000895F3
:10403000FC01480F591FE417F50711F06193FBCFFE
:024040000895E1
:104042009C01215631092A31310510F48F759927C7
:024052000895CF
:104054009C01215431092A31310508F48062089504
:0E40640086B7806986BF06B604FEFDCF0895BC
:0E4072005058BB27AA270E94F0110C94061F7D
:0E40800000240A94161617061806090608955D
:0E408E0000240A94121613061406050608955F
:0E409C00E894BB2766277727CB0197F9089594
:0C40AA0081B18C7F81B988E480B9089551
:0C40B6008DE081BD81B58D7F81BD089536
:0C40C20097F99F6780E870E060E00895C7
:0C40CE00EE0FFF1F0590F491E02D099407
:0A40DA008FB9779BFECF8FB10895D8
:0A40E4000E948E1C08F481E008958C
:0840EE0081E00E940E1A089502
:0840F6000E949A0E0C94061FB3
:0840FE000E94E30F0C94061F61
:064106000E945B200895F9
:06410C000E94322008951C
:064112000E94651F0895E4
:064118009FEF80EC08950A
:06411E0080E090E008952E
:044124000C940000F7
:044128000E94B5003C
:02412C000895F4
:02412E000895F2
:024130000895F0
:0641320006070002020076
:0541380002020000007E
:05413D00020200000079
:0341420000000179
:00000001FF
